{
  "_format": "hh-sol-artifact-1",
  "contractName": "BountyPlatform",
  "sourceName": "contracts/BountyPlatform.sol",
  "abi": [
    {
      "inputs": [],
      "stateMutability": "nonpayable",
      "type": "constructor"
    },
    {
      "anonymous": false,
      "inputs": [
        {
          "indexed": false,
          "internalType": "uint256",
          "name": "taskId",
          "type": "uint256"
        },
        {
          "indexed": true,
          "internalType": "address",
          "name": "applicant",
          "type": "address"
        }
      ],
      "name": "TaskApplied",
      "type": "event"
    },
    {
      "anonymous": false,
      "inputs": [
        {
          "indexed": false,
          "internalType": "uint256",
          "name": "taskId",
          "type": "uint256"
        },
        {
          "indexed": true,
          "internalType": "address",
          "name": "poster",
          "type": "address"
        },
        {
          "indexed": false,
          "internalType": "string",
          "name": "title",
          "type": "string"
        },
        {
          "indexed": false,
          "internalType": "string",
          "name": "description",
          "type": "string"
        },
        {
          "indexed": false,
          "internalType": "uint256",
          "name": "bountyAmount",
          "type": "uint256"
        },
        {
          "indexed": false,
          "internalType": "uint256",
          "name": "deadline",
          "type": "uint256"
        }
      ],
      "name": "TaskPosted",
      "type": "event"
    },
    {
      "anonymous": false,
      "inputs": [
        {
          "indexed": false,
          "internalType": "uint256",
          "name": "taskId",
          "type": "uint256"
        },
        {
          "indexed": true,
          "internalType": "address",
          "name": "reviewer",
          "type": "address"
        },
        {
          "indexed": false,
          "internalType": "bool",
          "name": "approved",
          "type": "bool"
        }
      ],
      "name": "TaskReviewed",
      "type": "event"
    },
    {
      "anonymous": false,
      "inputs": [
        {
          "indexed": false,
          "internalType": "uint256",
          "name": "taskId",
          "type": "uint256"
        },
        {
          "indexed": true,
          "internalType": "address",
          "name": "submitter",
          "type": "address"
        },
        {
          "indexed": false,
          "internalType": "string",
          "name": "proofDescription",
          "type": "string"
        },
        {
          "indexed": false,
          "internalType": "string",
          "name": "proofUrl",
          "type": "string"
        }
      ],
      "name": "TaskSubmitted",
      "type": "event"
    },
    {
      "inputs": [
        {
          "internalType": "uint256",
          "name": "_taskId",
          "type": "uint256"
        }
      ],
      "name": "applyForTask",
      "outputs": [],
      "stateMutability": "nonpayable",
      "type": "function"
    },
    {
      "inputs": [],
      "name": "getAllTaskIds",
      "outputs": [
        {
          "internalType": "uint256[]",
          "name": "",
          "type": "uint256[]"
        }
      ],
      "stateMutability": "view",
      "type": "function"
    },
    {
      "inputs": [
        {
          "internalType": "uint256",
          "name": "_taskId",
          "type": "uint256"
        }
      ],
      "name": "getTask",
      "outputs": [
        {
          "internalType": "uint256",
          "name": "id",
          "type": "uint256"
        },
        {
          "internalType": "address",
          "name": "poster",
          "type": "address"
        },
        {
          "internalType": "string",
          "name": "title",
          "type": "string"
        },
        {
          "internalType": "string",
          "name": "description",
          "type": "string"
        },
        {
          "internalType": "uint256",
          "name": "bountyAmount",
          "type": "uint256"
        },
        {
          "internalType": "uint256",
          "name": "deadline",
          "type": "uint256"
        },
        {
          "internalType": "address",
          "name": "applicant",
          "type": "address"
        },
        {
          "internalType": "bool",
          "name": "submitted",
          "type": "bool"
        },
        {
          "internalType": "bool",
          "name": "completed",
          "type": "bool"
        },
        {
          "internalType": "string",
          "name": "proofDescription",
          "type": "string"
        },
        {
          "internalType": "string",
          "name": "proofUrl",
          "type": "string"
        }
      ],
      "stateMutability": "view",
      "type": "function"
    },
    {
      "inputs": [
        {
          "internalType": "address",
          "name": "_applicant",
          "type": "address"
        }
      ],
      "name": "getTasksByApplicant",
      "outputs": [
        {
          "internalType": "uint256[]",
          "name": "",
          "type": "uint256[]"
        }
      ],
      "stateMutability": "view",
      "type": "function"
    },
    {
      "inputs": [
        {
          "internalType": "address",
          "name": "_poster",
          "type": "address"
        }
      ],
      "name": "getTasksByPoster",
      "outputs": [
        {
          "internalType": "uint256[]",
          "name": "",
          "type": "uint256[]"
        }
      ],
      "stateMutability": "view",
      "type": "function"
    },
    {
      "inputs": [],
      "name": "nextTaskId",
      "outputs": [
        {
          "internalType": "uint256",
          "name": "",
          "type": "uint256"
        }
      ],
      "stateMutability": "view",
      "type": "function"
    },
    {
      "inputs": [
        {
          "internalType": "string",
          "name": "_title",
          "type": "string"
        },
        {
          "internalType": "string",
          "name": "_description",
          "type": "string"
        },
        {
          "internalType": "uint256",
          "name": "_deadline",
          "type": "uint256"
        }
      ],
      "name": "postTask",
      "outputs": [],
      "stateMutability": "payable",
      "type": "function"
    },
    {
      "inputs": [
        {
          "internalType": "uint256",
          "name": "_taskId",
          "type": "uint256"
        },
        {
          "internalType": "bool",
          "name": "_approved",
          "type": "bool"
        }
      ],
      "name": "reviewTask",
      "outputs": [],
      "stateMutability": "nonpayable",
      "type": "function"
    },
    {
      "inputs": [
        {
          "internalType": "uint256",
          "name": "_taskId",
          "type": "uint256"
        },
        {
          "internalType": "string",
          "name": "_proofDescription",
          "type": "string"
        },
        {
          "internalType": "string",
          "name": "_proofUrl",
          "type": "string"
        }
      ],
      "name": "submitTask",
      "outputs": [],
      "stateMutability": "nonpayable",
      "type": "function"
    },
    {
      "inputs": [
        {
          "internalType": "uint256",
          "name": "",
          "type": "uint256"
        }
      ],
      "name": "tasks",
      "outputs": [
        {
          "internalType": "uint256",
          "name": "id",
          "type": "uint256"
        },
        {
          "internalType": "address",
          "name": "poster",
          "type": "address"
        },
        {
          "internalType": "string",
          "name": "title",
          "type": "string"
        },
        {
          "internalType": "string",
          "name": "description",
          "type": "string"
        },
        {
          "internalType": "uint256",
          "name": "bountyAmount",
          "type": "uint256"
        },
        {
          "internalType": "uint256",
          "name": "deadline",
          "type": "uint256"
        },
        {
          "internalType": "address",
          "name": "applicant",
          "type": "address"
        },
        {
          "internalType": "bool",
          "name": "submitted",
          "type": "bool"
        },
        {
          "internalType": "bool",
          "name": "completed",
          "type": "bool"
        },
        {
          "internalType": "string",
          "name": "proofDescription",
          "type": "string"
        },
        {
          "internalType": "string",
          "name": "proofUrl",
          "type": "string"
        }
      ],
      "stateMutability": "view",
      "type": "function"
    }
  ],
  "bytecode": "0x6080604052348015600f57600080fd5b50600180819055506128d3806100266000396000f3fe6080604052600436106100915760003560e01c80638d977672116100595780638d97767214610197578063a1356e7a146101de578063b8c0da3b1461021b578063d9b7d15414610237578063fdc3d8d71461026057610091565b80631d65e77e146100965780632087ed45146100dd57806329a134241461010657806347d10fd8146101315780634c26a72e1461015a575b600080fd5b3480156100a257600080fd5b506100bd60048036038101906100b891906117c2565b61028b565b6040516100d49b9a999897969594939291906118ea565b60405180910390f35b3480156100e957600080fd5b5061010460048036038101906100ff9190611a16565b6105e5565b005b34801561011257600080fd5b5061011b6107d2565b6040516101289190611b69565b60405180910390f35b34801561013d57600080fd5b5061015860048036038101906101539190611bb7565b610880565b005b34801561016657600080fd5b50610181600480360381019061017c9190611c23565b610b6d565b60405161018e9190611b69565b60405180910390f35b3480156101a357600080fd5b506101be60048036038101906101b991906117c2565b610d15565b6040516101d59b9a999897969594939291906118ea565b60405180910390f35b3480156101ea57600080fd5b5061020560048036038101906102009190611c23565b610fe9565b6040516102129190611b69565b60405180910390f35b61023560048036038101906102309190611c50565b611191565b005b34801561024357600080fd5b5061025e600480360381019061025991906117c2565b611516565b005b34801561026c57600080fd5b5061027561177c565b6040516102829190611ce5565b60405180910390f35b600080606080600080600080600060608060008c1180156102ad57506001548c105b6102ec576040517f08c379a00000000000000000000000000000000000000000000000000000000081526004016102e390611d4c565b60405180910390fd5b60008060008e8152602001908152602001600020905080600001548160010160009054906101000a900473ffffffffffffffffffffffffffffffffffffffff168260020183600301846004015485600501548660060160009054906101000a900473ffffffffffffffffffffffffffffffffffffffff168760060160149054906101000a900460ff168860060160159054906101000a900460ff16896007018a60080188805461039b90611d9b565b80601f01602080910402602001604051908101604052809291908181526020018280546103c790611d9b565b80156104145780601f106103e957610100808354040283529160200191610414565b820191906000526020600020905b8154815290600101906020018083116103f757829003601f168201915b5050505050985087805461042790611d9b565b80601f016020809104026020016040519081016040528092919081815260200182805461045390611d9b565b80156104a05780601f10610475576101008083540402835291602001916104a0565b820191906000526020600020905b81548152906001019060200180831161048357829003601f168201915b505050505097508180546104b390611d9b565b80601f01602080910402602001604051908101604052809291908181526020018280546104df90611d9b565b801561052c5780601f106105015761010080835404028352916020019161052c565b820191906000526020600020905b81548152906001019060200180831161050f57829003601f168201915b5050505050915080805461053f90611d9b565b80601f016020809104026020016040519081016040528092919081815260200182805461056b90611d9b565b80156105b85780601f1061058d576101008083540402835291602001916105b8565b820191906000526020600020905b81548152906001019060200180831161059b57829003601f168201915b505050505090509b509b509b509b509b509b509b509b509b509b509b505091939597999b90929496989a50565b6000851180156105f6575060015485105b610635576040517f08c379a000000000000000000000000000000000000000000000000000000000815260040161062c90611d4c565b60405180910390fd5b600080600087815260200190815260200160002090503373ffffffffffffffffffffffffffffffffffffffff168160060160009054906101000a900473ffffffffffffffffffffffffffffffffffffffff1673ffffffffffffffffffffffffffffffffffffffff16146106dd576040517f08c379a00000000000000000000000000000000000000000000000000000000081526004016106d490611e3e565b60405180910390fd5b8060060160149054906101000a900460ff161561072f576040517f08c379a000000000000000000000000000000000000000000000000000000000815260040161072690611eaa565b60405180910390fd5b60018160060160146101000a81548160ff021916908315150217905550848482600701918261075f9291906120b0565b5082828260080191826107739291906120b0565b503373ffffffffffffffffffffffffffffffffffffffff167f45eb2f7e88b0a093b5ca16a2af6b9a01a44551a2f43c32afc1b12d75a701f7e487878787876040516107c29594939291906121bc565b60405180910390a2505050505050565b60606000600180546107e49190612234565b67ffffffffffffffff8111156107fd576107fc611ed5565b5b60405190808252806020026020018201604052801561082b5781602001602082028036833780820191505090505b5090506000600190505b60015481101561087857808260018361084e9190612234565b8151811061085f5761085e612268565b5b6020026020010181815250508080600101915050610835565b508091505090565b600082118015610891575060015482105b6108d0576040517f08c379a00000000000000000000000000000000000000000000000000000000081526004016108c790611d4c565b60405180910390fd5b600080600084815260200190815260200160002090503373ffffffffffffffffffffffffffffffffffffffff168160010160009054906101000a900473ffffffffffffffffffffffffffffffffffffffff1673ffffffffffffffffffffffffffffffffffffffff1614610978576040517f08c379a000000000000000000000000000000000000000000000000000000000815260040161096f90612309565b60405180910390fd5b8060060160149054906101000a900460ff166109c9576040517f08c379a00000000000000000000000000000000000000000000000000000000081526004016109c090612375565b60405180910390fd5b8060060160159054906101000a900460ff1615610a1b576040517f08c379a0000000000000000000000000000000000000000000000000000000008152600401610a12906123e1565b60405180910390fd5b818160060160156101000a81548160ff0219169083151502179055508115610b175760008160060160009054906101000a900473ffffffffffffffffffffffffffffffffffffffff1673ffffffffffffffffffffffffffffffffffffffff168260040154604051610a8b90612432565b60006040518083038185875af1925050503d8060008114610ac8576040519150601f19603f3d011682016040523d82523d6000602084013e610acd565b606091505b5050905080610b11576040517f08c379a0000000000000000000000000000000000000000000000000000000008152600401610b0890612493565b60405180910390fd5b50610b18565b5b3373ffffffffffffffffffffffffffffffffffffffff167f183af3de4651bdc4a8c7a1500f5802a805f9e4feb42846a6c538e2b4d25a523e8484604051610b609291906124b3565b60405180910390a2505050565b6060600080600190505b600154811015610c05578373ffffffffffffffffffffffffffffffffffffffff1660008083815260200190815260200160002060060160009054906101000a900473ffffffffffffffffffffffffffffffffffffffff1673ffffffffffffffffffffffffffffffffffffffff1603610bf8578180610bf4906124dc565b9250505b8080600101915050610b77565b5060008167ffffffffffffffff811115610c2257610c21611ed5565b5b604051908082528060200260200182016040528015610c505781602001602082028036833780820191505090505b509050600080600190505b600154811015610d09578573ffffffffffffffffffffffffffffffffffffffff1660008083815260200190815260200160002060060160009054906101000a900473ffffffffffffffffffffffffffffffffffffffff1673ffffffffffffffffffffffffffffffffffffffff1603610cfc5780838381518110610ce157610ce0612268565b5b6020026020010181815250508180610cf8906124dc565b9250505b8080600101915050610c5b565b50819350505050919050565b60006020528060005260406000206000915090508060000154908060010160009054906101000a900473ffffffffffffffffffffffffffffffffffffffff1690806002018054610d6490611d9b565b80601f0160208091040260200160405190810160405280929190818152602001828054610d9090611d9b565b8015610ddd5780601f10610db257610100808354040283529160200191610ddd565b820191906000526020600020905b815481529060010190602001808311610dc057829003601f168201915b505050505090806003018054610df290611d9b565b80601f0160208091040260200160405190810160405280929190818152602001828054610e1e90611d9b565b8015610e6b5780601f10610e4057610100808354040283529160200191610e6b565b820191906000526020600020905b815481529060010190602001808311610e4e57829003601f168201915b5050505050908060040154908060050154908060060160009054906101000a900473ffffffffffffffffffffffffffffffffffffffff16908060060160149054906101000a900460ff16908060060160159054906101000a900460ff1690806007018054610ed890611d9b565b80601f0160208091040260200160405190810160405280929190818152602001828054610f0490611d9b565b8015610f515780601f10610f2657610100808354040283529160200191610f51565b820191906000526020600020905b815481529060010190602001808311610f3457829003601f168201915b505050505090806008018054610f6690611d9b565b80601f0160208091040260200160405190810160405280929190818152602001828054610f9290611d9b565b8015610fdf5780601f10610fb457610100808354040283529160200191610fdf565b820191906000526020600020905b815481529060010190602001808311610fc257829003601f168201915b505050505090508b565b6060600080600190505b600154811015611081578373ffffffffffffffffffffffffffffffffffffffff1660008083815260200190815260200160002060010160009054906101000a900473ffffffffffffffffffffffffffffffffffffffff1673ffffffffffffffffffffffffffffffffffffffff1603611074578180611070906124dc565b9250505b8080600101915050610ff3565b5060008167ffffffffffffffff81111561109e5761109d611ed5565b5b6040519080825280602002602001820160405280156110cc5781602001602082028036833780820191505090505b509050600080600190505b600154811015611185578573ffffffffffffffffffffffffffffffffffffffff1660008083815260200190815260200160002060010160009054906101000a900473ffffffffffffffffffffffffffffffffffffffff1673ffffffffffffffffffffffffffffffffffffffff1603611178578083838151811061115d5761115c612268565b5b6020026020010181815250508180611174906124dc565b9250505b80806001019150506110d7565b50819350505050919050565b600034116111d4576040517f08c379a00000000000000000000000000000000000000000000000000000000081526004016111cb90612596565b60405180910390fd5b428111611216576040517f08c379a000000000000000000000000000000000000000000000000000000000815260040161120d90612602565b60405180910390fd5b60405180610160016040528060015481526020013373ffffffffffffffffffffffffffffffffffffffff16815260200186868080601f016020809104026020016040519081016040528093929190818152602001838380828437600081840152601f19601f82011690508083019250505050505050815260200184848080601f016020809104026020016040519081016040528093929190818152602001838380828437600081840152601f19601f820116905080830192505050505050508152602001348152602001828152602001600073ffffffffffffffffffffffffffffffffffffffff1681526020016000151581526020016000151581526020016040518060200160405280600081525081526020016040518060200160405280600081525081525060008060015481526020019081526020016000206000820151816000015560208201518160010160006101000a81548173ffffffffffffffffffffffffffffffffffffffff021916908373ffffffffffffffffffffffffffffffffffffffff16021790555060408201518160020190816113b79190612622565b5060608201518160030190816113cd9190612622565b506080820151816004015560a0820151816005015560c08201518160060160006101000a81548173ffffffffffffffffffffffffffffffffffffffff021916908373ffffffffffffffffffffffffffffffffffffffff16021790555060e08201518160060160146101000a81548160ff0219169083151502179055506101008201518160060160156101000a81548160ff0219169083151502179055506101208201518160070190816114809190612622565b506101408201518160080190816114979190612622565b509050503373ffffffffffffffffffffffffffffffffffffffff167fbd304f9c034156fda90e65f0ece949f59edcaa1de0f3cc97b8f6f509202fa7f06001548787878734886040516114ef97969594939291906126f4565b60405180910390a26001600081548092919061150a906124dc565b91905055505050505050565b600081118015611527575060015481105b611566576040517f08c379a000000000000000000000000000000000000000000000000000000000815260040161155d90611d4c565b60405180910390fd5b60008060008381526020019081526020016000209050600073ffffffffffffffffffffffffffffffffffffffff168160060160009054906101000a900473ffffffffffffffffffffffffffffffffffffffff1673ffffffffffffffffffffffffffffffffffffffff161461160f576040517f08c379a0000000000000000000000000000000000000000000000000000000008152600401611606906127a5565b60405180910390fd5b42816005015411611655576040517f08c379a000000000000000000000000000000000000000000000000000000000815260040161164c90612811565b60405180910390fd5b3373ffffffffffffffffffffffffffffffffffffffff168160010160009054906101000a900473ffffffffffffffffffffffffffffffffffffffff1673ffffffffffffffffffffffffffffffffffffffff16036116e7576040517f08c379a00000000000000000000000000000000000000000000000000000000081526004016116de9061287d565b60405180910390fd5b338160060160006101000a81548173ffffffffffffffffffffffffffffffffffffffff021916908373ffffffffffffffffffffffffffffffffffffffff1602179055503373ffffffffffffffffffffffffffffffffffffffff167f7f4b15de145103c2f48b4429df1c147497eb30d764058cdbdd0e7b7ad82d8fac836040516117709190611ce5565b60405180910390a25050565b60015481565b600080fd5b600080fd5b6000819050919050565b61179f8161178c565b81146117aa57600080fd5b50565b6000813590506117bc81611796565b92915050565b6000602082840312156117d8576117d7611782565b5b60006117e6848285016117ad565b91505092915050565b6117f88161178c565b82525050565b600073ffffffffffffffffffffffffffffffffffffffff82169050919050565b6000611829826117fe565b9050919050565b6118398161181e565b82525050565b600081519050919050565b600082825260208201905092915050565b60005b8381101561187957808201518184015260208101905061185e565b60008484015250505050565b6000601f19601f8301169050919050565b60006118a18261183f565b6118ab818561184a565b93506118bb81856020860161185b565b6118c481611885565b840191505092915050565b60008115159050919050565b6118e4816118cf565b82525050565b600061016082019050611900600083018e6117ef565b61190d602083018d611830565b818103604083015261191f818c611896565b90508181036060830152611933818b611896565b9050611942608083018a6117ef565b61194f60a08301896117ef565b61195c60c0830188611830565b61196960e08301876118db565b6119776101008301866118db565b81810361012083015261198a8185611896565b905081810361014083015261199f8184611896565b90509c9b505050505050505050505050565b600080fd5b600080fd5b600080fd5b60008083601f8401126119d6576119d56119b1565b5b8235905067ffffffffffffffff8111156119f3576119f26119b6565b5b602083019150836001820283011115611a0f57611a0e6119bb565b5b9250929050565b600080600080600060608688031215611a3257611a31611782565b5b6000611a40888289016117ad565b955050602086013567ffffffffffffffff811115611a6157611a60611787565b5b611a6d888289016119c0565b9450945050604086013567ffffffffffffffff811115611a9057611a8f611787565b5b611a9c888289016119c0565b92509250509295509295909350565b600081519050919050565b600082825260208201905092915050565b6000819050602082019050919050565b611ae08161178c565b82525050565b6000611af28383611ad7565b60208301905092915050565b6000602082019050919050565b6000611b1682611aab565b611b208185611ab6565b9350611b2b83611ac7565b8060005b83811015611b5c578151611b438882611ae6565b9750611b4e83611afe565b925050600181019050611b2f565b5085935050505092915050565b60006020820190508181036000830152611b838184611b0b565b905092915050565b611b94816118cf565b8114611b9f57600080fd5b50565b600081359050611bb181611b8b565b92915050565b60008060408385031215611bce57611bcd611782565b5b6000611bdc858286016117ad565b9250506020611bed85828601611ba2565b9150509250929050565b611c008161181e565b8114611c0b57600080fd5b50565b600081359050611c1d81611bf7565b92915050565b600060208284031215611c3957611c38611782565b5b6000611c4784828501611c0e565b91505092915050565b600080600080600060608688031215611c6c57611c6b611782565b5b600086013567ffffffffffffffff811115611c8a57611c89611787565b5b611c96888289016119c0565b9550955050602086013567ffffffffffffffff811115611cb957611cb8611787565b5b611cc5888289016119c0565b93509350506040611cd8888289016117ad565b9150509295509295909350565b6000602082019050611cfa60008301846117ef565b92915050565b7f5461736b20646f6573206e6f7420657869737400000000000000000000000000600082015250565b6000611d3660138361184a565b9150611d4182611d00565b602082019050919050565b60006020820190508181036000830152611d6581611d29565b9050919050565b7f4e487b7100000000000000000000000000000000000000000000000000000000600052602260045260246000fd5b60006002820490506001821680611db357607f821691505b602082108103611dc657611dc5611d6c565b5b50919050565b7f4f6e6c7920746865206170706c6963616e742063616e207375626d697420746860008201527f65207461736b0000000000000000000000000000000000000000000000000000602082015250565b6000611e2860268361184a565b9150611e3382611dcc565b604082019050919050565b60006020820190508181036000830152611e5781611e1b565b9050919050565b7f5461736b20616c7265616479207375626d697474656400000000000000000000600082015250565b6000611e9460168361184a565b9150611e9f82611e5e565b602082019050919050565b60006020820190508181036000830152611ec381611e87565b9050919050565b600082905092915050565b7f4e487b7100000000000000000000000000000000000000000000000000000000600052604160045260246000fd5b60008190508160005260206000209050919050565b60006020601f8301049050919050565b600082821b905092915050565b600060088302611f667fffffffffffffffffffffffffffffffffffffffffffffffffffffffffffffffff82611f29565b611f708683611f29565b95508019841693508086168417925050509392505050565b6000819050919050565b6000611fad611fa8611fa38461178c565b611f88565b61178c565b9050919050565b6000819050919050565b611fc783611f92565b611fdb611fd382611fb4565b848454611f36565b825550505050565b600090565b611ff0611fe3565b611ffb818484611fbe565b505050565b5b8181101561201f57612014600082611fe8565b600181019050612001565b5050565b601f8211156120645761203581611f04565b61203e84611f19565b8101602085101561204d578190505b61206161205985611f19565b830182612000565b50505b505050565b600082821c905092915050565b600061208760001984600802612069565b1980831691505092915050565b60006120a08383612076565b9150826002028217905092915050565b6120ba8383611eca565b67ffffffffffffffff8111156120d3576120d2611ed5565b5b6120dd8254611d9b565b6120e8828285612023565b6000601f8311600181146121175760008415612105578287013590505b61210f8582612094565b865550612177565b601f19841661212586611f04565b60005b8281101561214d57848901358255600182019150602085019450602081019050612128565b8683101561216a5784890135612166601f891682612076565b8355505b6001600288020188555050505b50505050505050565b82818337600083830152505050565b600061219b838561184a565b93506121a8838584612180565b6121b183611885565b840190509392505050565b60006060820190506121d160008301886117ef565b81810360208301526121e481868861218f565b905081810360408301526121f981848661218f565b90509695505050505050565b7f4e487b7100000000000000000000000000000000000000000000000000000000600052601160045260246000fd5b600061223f8261178c565b915061224a8361178c565b925082820390508181111561226257612261612205565b5b92915050565b7f4e487b7100000000000000000000000000000000000000000000000000000000600052603260045260246000fd5b7f4f6e6c7920746865207461736b20706f737465722063616e207265766965772060008201527f6974000000000000000000000000000000000000000000000000000000000000602082015250565b60006122f360228361184a565b91506122fe82612297565b604082019050919050565b60006020820190508181036000830152612322816122e6565b9050919050565b7f5461736b20686173206e6f74206265656e207375626d69747465642079657400600082015250565b600061235f601f8361184a565b915061236a82612329565b602082019050919050565b6000602082019050818103600083015261238e81612352565b9050919050565b7f5461736b20616c726561647920636f6d706c6574656400000000000000000000600082015250565b60006123cb60168361184a565b91506123d682612395565b602082019050919050565b600060208201905081810360008301526123fa816123be565b9050919050565b600081905092915050565b50565b600061241c600083612401565b91506124278261240c565b600082019050919050565b600061243d8261240f565b9150819050919050565b7f4661696c656420746f207472616e7366657220626f756e747900000000000000600082015250565b600061247d60198361184a565b915061248882612447565b602082019050919050565b600060208201905081810360008301526124ac81612470565b9050919050565b60006040820190506124c860008301856117ef565b6124d560208301846118db565b9392505050565b60006124e78261178c565b91507fffffffffffffffffffffffffffffffffffffffffffffffffffffffffffffffff820361251957612518612205565b5b600182019050919050565b7f426f756e747920616d6f756e74206d757374206265206772656174657220746860008201527f616e203000000000000000000000000000000000000000000000000000000000602082015250565b600061258060248361184a565b915061258b82612524565b604082019050919050565b600060208201905081810360008301526125af81612573565b9050919050565b7f446561646c696e65206d75737420626520696e20746865206675747572650000600082015250565b60006125ec601e8361184a565b91506125f7826125b6565b602082019050919050565b6000602082019050818103600083015261261b816125df565b9050919050565b61262b8261183f565b67ffffffffffffffff81111561264457612643611ed5565b5b61264e8254611d9b565b612659828285612023565b600060209050601f83116001811461268c576000841561267a578287015190505b6126848582612094565b8655506126ec565b601f19841661269a86611f04565b60005b828110156126c25784890151825560018201915060208501945060208101905061269d565b868310156126df57848901516126db601f891682612076565b8355505b6001600288020188555050505b505050505050565b600060a082019050612709600083018a6117ef565b818103602083015261271c81888a61218f565b9050818103604083015261273181868861218f565b905061274060608301856117ef565b61274d60808301846117ef565b98975050505050505050565b7f5461736b20616c7265616479206170706c69656420666f720000000000000000600082015250565b600061278f60188361184a565b915061279a82612759565b602082019050919050565b600060208201905081810360008301526127be81612782565b9050919050565b7f5461736b20686173206578706972656400000000000000000000000000000000600082015250565b60006127fb60108361184a565b9150612806826127c5565b602082019050919050565b6000602082019050818103600083015261282a816127ee565b9050919050565b7f43616e6e6f74206170706c7920666f7220796f7572206f776e207461736b0000600082015250565b6000612867601e8361184a565b915061287282612831565b602082019050919050565b600060208201905081810360008301526128968161285a565b905091905056fea26469706673582212203011d1abebe983881e0deda89e82328b6514991be06af490ac6f003533e57d6164736f6c634300081c0033",
  "linkReferences": {},
  "deployedLinkReferences": {}
}